:020000040800F2
:10000000900A0020ED010008DF3200084F2E0008A2
:10001000DD32000855040008B54200080000000069
:100020000000000000000000000000001B3300087A
:100030000705000800000000E13200081D33000839
:10004000070200080702000807020008070200086C
:10005000070200080702000807020008070200085C
:1000600007020008070200080702000859040008F8
:10007000070200080702000807020008070200083C
:10008000070200080702000807020008070200082C
:10009000070200080702000807020008070200081C
:1000A000070200080702000807020008070200080C
:1000B00007020008070200080702000807020008FC
:1000C000070200080702000807020008E5320008DE
:1000D000F1320008A94200080702000807020008E0
:1000E00009050008070200080702000807020008C7
:1000F00007020008070200080702000807020008BC
:10010000070200080702000807020008FD32000885
:100110000702000807020008B133000807020008C0
:10012000070200080702000807020008070200088B
:10013000070200080702000807020008070200087B
:10014000070200080702000807020008070200086B
:10015000070200080702000807020008070200085B
:10016000070200080702000807020008070200084B
:10017000070200080702000807020008070200083B
:10018000070200080702000807020008070200082B
:10019000070200080000000007020008070200082C
:1001A000070200080702000807020008AD2E000839
:1001B00007020008070200080702000807020008FB
:1001C00007020008070200080702000807020008EB
:1001D0000702000807020008DFF80CD000F07AF8E8
:1001E00000480047DD430008900A00200648804789
:1001F00006480047FEE7FEE7FEE7FEE7FEE7FEE70C
:10020000FEE7FEE7FEE7FEE795330008D9010008A8
:100210002DE9F05F0546002092469B46884606463B
:10022000814640241BE0284641464746224600F0CE
:1002300041F853465A46C01A914110D31146184608
:10024000224600F028F82D1A67EB01084F46224697
:100250000120002100F01FF817EB00094E41201E7D
:10026000A4F10104DFDC484631462A464346BDE896
:10027000F09FD2B201E000F8012B491EFBD270477B
:100280000022F6E710B513460A4604461946FFF762
:10029000F0FF204610BD202A04DB203A00FA02F1CC
:1002A000002070479140C2F1200320FA03F3194364
:1002B00090407047202A04DB203A21FA02F0002106
:1002C000704721FA02F3D040C2F120029140084366
:1002D00019467047064C074D06E0E06840F0010300
:1002E00094E8070098471034AC42F6D3FFF778FF44
:1002F000C4440008E444000810B5846AE16D11F0BC
:10030000500F06D0E16DC90625D5204600F082FBCE
:1003100010BDE06D40F40070E065206801680907D9
:1003200016D502F0A3FD78B12068C06880040028CB
:100330000ADBE06D20F48070E065E06DC00403D45A
:10034000E06D40F00100E065204600F061FB10BD6B
:10035000C0688007EBE7616D496BBDE81040084756
:1003600010B5806AC16D41F04001C165016E41F078
:100370000401016600F04EFB10BD10B5806A00F06C
:1003800048FB10BD70B50446006881688268C1F3FF
:10039000400112F0010F24D019BB816801F00D015A
:1003A000012910D18168104A1140891C816021689F
:1003B0000320086000F076FF05460EE000F072FFB3
:1003C000401B022809D9E06D40F01000E065206E66
:1003D00040F001002066012070BD20688068C007E1
:1003E000ECD1002070BD0000C0FFFF7F70B5044657
:1003F0000068816811F0010F28D18168144A114208
:1004000015D18168D5432940491C816000F04AFF1D
:10041000064616E0816811F0010F03D1816829407A
:10042000491C816000F03EFF801B022809D9E06D65
:1004300040F01000E065206E40F0010020660120D1
:1004400070BD20680168C943C907E3D1002070BDB1
:100450003F000080FEE70000014800F017BD0000EB
:100460002C0600200D4902688A4201D20C4901E0A5
:100470000B492031D2B21423083AB2FBF3F2436C99
:1004800002F01F0223F00303194481640449803100
:10049000C1640121914001657047000008040240D9
:1004A000000802400179074A02EB81024265054AD1
:1004B0004432491E826501F01F0201219140C1654D
:1004C00070470000FC08024030B5D0E91345656074
:1004D000446D14B1D0E91645656090F8444004F0CD
:1004E0001F050124AC40056C6C6004686360836880
:1004F000102B036803D099600068C26030BD9A6019
:100500000068C16030BD70474FF4005000F0D6BDA8
:1005100070470000F8B500260446009690F8580091
:100520000D4601280BD0012084F858002046FFF723
:1005300029FF0100E06D04D040F010002AE0022005
:10054000F8BD20F4885040F00200E0652068826821
:10055000134B1A4005F080431A4342F00042826078
:10056000104A20680EE0009B5B1C0093934209D365
:10057000E06D20F0020040F01000E06584F8586063
:100580000120F8BD8368DB0FEDD1E06D20F00200A3
:1005900040F00100E06584F858600846F8BD0000AE
:1005A000C0FFFF3F02DE04002DE9F84F002704469C
:1005B000009790F85800DFF818840D46B9460128D6
:1005C00011D0012684F85860206802F04BFC60B11D
:1005D000E06D40F02000E0655FF0010784F858907E
:1005E0003846BDE8F88F0220FBE7D5E900210C234F
:1005F000206803EA91131844036B01F01F014FF0C8
:100600001F0C0CFA01FCC2F3846223EA0C038A403B
:1006100013430363206802F025FC8246206802F041
:100620001DFC5AEA00003CD1AA6829682068B2F192
:10063000004F37D002F022FC2068416921F00041D0
:10064000416120686969C268C2F3C10252009140E9
:100650002A69042A31D000EB82002B68026EDFF891
:1006600074C303F0F84302EA0C020B431A4342F04E
:100670000041016620682A69A96900EB8200026EC8
:1006800022F080720A430266297F226828690129C4
:1006900010D0002102EB8000026E22F000720A43AB
:1006A00002667DE0002202F0E9FB2068416941F02A
:1006B0000041C5E74FF00071ECE7002102F0C8FBF4
:1006C000400320684FF0000172D002F0C1FB90FAA5
:1006D000A0F0B0FA80F1286842036ED090FAA0F042
:1006E000B0FA80F0814204D100221146206802F065
:1006F000D4FB0121206802F0ABFB400320684FF0DF
:1007000001015DD002F0A4FB90FAA0F0B0FA80F1F4
:100710002868420359D090FAA0F0B0FA80F08142E4
:1007200004D100220121206802F0B7FB02212068D9
:1007300002F08EFB400320684FF0020148D002F027
:1007400087FB90FAA0F0B0FA80F12868420344D009
:1007500090FAA0F0B0FA80F0814204D10022022188
:10076000206802F09AFB0321206802F071FB40032D
:1007700020684FF0030133D002F06AFB90FAA0F03A
:10078000B0FA80F1286842032FD090FAA0F0B0FAB6
:1007900080F0814204D100220321206802F07DFB19
:1007A0002068816811F0010F22D0ACE000E004E085
:1007B00002F04EFBC0F384618DE7C0F3846091E7E3
:1007C00002F046FBC0F38461A2E7C0F38460A6E7B1
:1007D00002F03EFBC0F38461B7E7C0F38460BBE77F
:1007E00002F036FBC0F38461CCE7C0F38460D0E74D
:1007F0002A7B296850F8B03FC1F3120C23EA0C039E
:1008000002F0180C744A22FA0CF20A4013430360F7
:10081000E968414577D1286841031CD090FAA0F1DE
:10082000B1FA81F1491C01F01F0109294FEA403159
:1008300032D8002912D000BF90FAA0F1B1FA81F1AC
:1008400001F1010101F01F0106FA01F609D100BF13
:10085000C0F3846109E0C0F38461E3E7C0F384611D
:10086000EEE790FAA0F1B1FA81F101F1010101F096
:100870001F0146EA816102D1C0F3846003E090FA6F
:10088000A0F0B0FA80F000F1010000F01F0000EBD2
:10089000400041EA005132E000290ED090FAA0F168
:1008A000B1FA81F101F1010101F01F0106FA01F62F
:1008B00006D100BFC0F3846106E0C0F38461F1E7B4
:1008C00090FAA0F1B1FA81F101F1010101F01F01EB
:1008D00046EA816102D1C0F3846003E090FAA0F09F
:1008E000B0FA80F000F1010000F01F003B4A00EB7D
:1008F000400002EB005041EA000141F00071AA689B
:10090000206802F0BBFA36482B6803423FF466AE1B
:1009100021684FF0A04C3348334E344D614501D02F
:10092000A94201D1024600E032469268DFF8C08059
:1009300002F0E072434503D0DFF8B880434520D190
:100940005FEA02281DD4614506D02B4B99427FF403
:1009500045AEA94200D0304642F40001826822F040
:10096000E0720A438260254825490068B0FBF1F037
:1009700000EB4000800000E0401E00900028FBD10A
:100980002CE6DFF8808043450FD15FEAC2180CD413
:10099000A94202D11C4B9942F2D0614502D0A94232
:1009A00000D0304642F080710CE0DFF860804345B3
:1009B000E6D15302E4D4A942E2D0614500D03046EA
:1009C00042F48001826822F0E0720A43826005E608
:1009D00000007F4000F0FF03FFFF0700000020FE43
:1009E0000000088000030050000700500001005084
:1009F000000021C31000C090000600501401002028
:100A0000400D0300000052C700050050000084CBD9
:100A10007047704770470000F8B54FF000050400BC
:100A20002E46009502D0E06D10B107E00120F8BD20
:100A3000204600F00BF9266684F85860206881682B
:100A4000C1F3407119B18168744A11408160206816
:100A50008168C1F3007179B98168714A114041F030
:100A6000805181606F4870490068B0FBF1F000E090
:100A7000401E00900028FBD120688168C1F30071FE
:100A800041B9E16D41F01001E165216E41F00101D4
:100A90002166012502F0E6F9E16DC90600D430B106
:100AA000E06D40F01000E06501252846F8BDE06DDE
:100AB00020F4807040F00200E0652068816811F049
:100AC000010F27D14FF0A043584A984201D09042DD
:100AD00004D19968966801F001010AE054498968D7
:100AE000544E01F00101B66806F001063143524E42
:100AF000B66806F0010631430CD1984201D090420D
:100B000001D14E4800E04E486168826822F47C12B0
:100B10000A438260E168E06B627F0843A16841EAB2
:100B20004231084394F8241040EA0140012904D1DD
:100B3000218D444A02EB41410843E16A29B101F4A5
:100B40007871226B014342EA01002268D1683E4B72
:100B500019400143D16020680169626B21F0406156
:100B600011430161206802F07DF90646206802F019
:100B700075F906432ED1207F94F83810800340EA9F
:100B800041022168C86844F2020398431043C860D8
:100B900020690028206801690AD041F48031016190
:100BA000206850F8C01F22696FF30D01114307E060
:100BB00021F480310161206850F8C01F6FF30D01EE
:100BC000016094F8400001280CD02068016921F0F0
:100BD00001010161606901282068016B21F00F01AA
:100BE00011D013E0D4E911010843D4E913121143E1
:100BF000084321680A6940F2FC739A43104340F0AD
:100C000001000861E6E7226A521E11430163E06DAC
:100C100020F0020040F00100E06546E7C0FFFF5F02
:100C2000C0FFFF7F14010020400D030000010050B1
:100C30000004005000050050000600500003005062
:100C4000000700500000FEFF0740F0FF70B586B0BF
:100C5000064614216846FFF713FB24493068884292
:100C600041D12349C86C40F40050C864C86C00F4FA
:100C700000500590C86C40F00400C864C86C00F0D7
:100C800004000590C86C40F00100C864C86C0324DF
:100C900000F001000590042000258DE83100694630
:100CA000144800F017FA13208DE8310069464FF020
:100CB000904000F00FFA114C0F4820602420C4E946
:100CC00001058020C4E90350400060618000A061FC
:100CD0002020C4E90705204600F036F908B1FFF7E7
:100CE00017FC7465A66206B070BD000000010050DC
:100CF0000010024000080048080002402C060020B6
:100D00002DE9F047044600684FF0A048384F91465F
:100D10008A46404501D0B84201D1364900E0364903
:100D2000896801F01F0502F09DF800285DD194F854
:100D30005800012859D0012084F85800002625B118
:100D4000052D02D0092D00D003E02046FFF74EFB11
:100D500018B184F85860BDE8F087E06D40F6016195
:100D6000884340F48070E0652068B84201D1414674
:100D700005E02249884201D1214900E00146814233
:100D800000D01DB9E06D20F48010E065E06DC00476
:100D900004D5206E20F00600206600E02666616D16
:100DA0001848C862616D18480863616D1748486348
:100DB00021681C20086084F858602068416841F070
:100DC000100141602068C16841F00101C1602168E3
:100DD0004B4652464031606D00F016F921688A6832
:100DE0000B4B1A40121D8A60B5E70220B3E70000E2
:100DF00000010050000300500007005000050050A3
:100E000000040050F90200087B0300086103000899
:100E1000C0FFFF7F70B590F82520002401212346F4
:100E2000022A07D00422C26380F8251080F82430FB
:100E3000012429E00268156825F00E051560026896
:100E4000156825F001051560826C156825F480751C
:100E5000156090F84420056C02F01F0201FA02F2BE
:100E60006A60D0E913255560426D32B1156825F4EA
:100E700080751560D0E91625556080F8251080F83A
:100E80002430816B01B18847204670BDF0B4016CFD
:100E90000C6801680D6890F8442002F01F060422D7
:100EA00002FA06F3234211D06B070FD50B689B069D
:100EB00003D40B6823F004030B6090F8441001F096
:100EC0001F018A40016C4A60016B1DE0022303FA96
:100ED00006F727424FF0000C4FF0010218D0AF0781
:100EE00016D50C68A40605D40C6824F00A040C601E
:100EF00080F8252090F8441001F01F018B40016C10
:100F00004B6080F824C0C16A00291AD0F0BC0847A1
:100F10000823B340234214D02B0712D50B6823F0CB
:100F20000E030B6090F84410036C01F01F0102FAED
:100F300001F15960C26380F8252080F824C0416B1C
:100F4000E2E7F0BC7047000070B504000CD02B4AFB
:100F500021681420914209D2294A0A44B2FBF0F0D8
:100F60008000606427480AE0012070BD234A524295
:100F70000A44B2FBF0F08000606420480838206426
:100F8000022084F825000A6847F6F0708243D4E90D
:100F900002031843D4E904352B431843A3691843CB
:100FA000E3691843236A1843104308602046FFF79B
:100FB00059FAA0680025B0F5804F00D16560A16C9A
:100FC00020790860D4E9130141606068401E03285D
:100FD00008D82046FFF766FA606D0560D4E916016F
:100FE000416002E06565A565E565E563012084F87B
:100FF000250084F82450002070BD00000804024041
:10100000F8FFFDBF0000024070B5044690F82400D0
:10101000002501280CD0012084F8240094F82560D4
:101020000020012E06D084F824000225284670BD39
:10103000022070BD022684F82560E06320680668FF
:1010400026F0010606602046FFF73EFA206B0028D6
:101050002068016802D041F00E0106E021F0040191
:1010600001602068016841F00A010160A06C01681C
:10107000C90303D5016841F480710160606D18B146
:10108000016841F4807101602068016841F001014C
:101090000160CBE770B5044600F004F90546601C1A
:1010A00002D004484068044400F0FCF8401BA04211
:1010B000FAD370BD0801002070470000044910B544
:1010C0000A68024202D00860FFF7F6FF10BD000078
:1010D000140401402DE9F84FDFF890B100230127F7
:1010E0004FF0030A4FF00F090BF1040EB6E000BFFA
:1010F00007FA03F6324070D04C68022C01D0122C53
:1011000010D1DC0800EB8408D8F820405D074FEAD6
:10111000D56C09FA0CF5AC430D6905FA0CF52543BD
:10112000C8F82050D0F800805D0091F804C00AFA99
:1011300005F40CF0030C28EA04080CFA05FC4CEA50
:10114000080CC0F800C0D1F804C0BCF1010F08D0F1
:10115000BCF1020F05D0BCF1110F02D0BCF1120F8F
:1011600016D1D0F808C0D1F80C802CEA040C08FA8B
:1011700005F848EA0C08C0F80880D0F804C02CEA4A
:10118000060C0E79C6F300169E4046EA0C06466031
:10119000C668A6438C68AC403443C4604C68E40025
:1011A0005BD5334C256E45F001052566246E23F092
:1011B000030504F0010400942E4C2E19B4689D0719
:1011C0004FEA157C09FA0CF5AC43B0F1904F05D00D
:1011D000294DA84204D1012517E03EE0002514E086
:1011E000264DA84201D102250FE0254DA84201D18C
:1011F00003250AE0234DA84201D1042505E0224D34
:10120000A84201D1052500E0062505FA0CF5254385
:10121000B560DBF800405D464E689443F60300D5A8
:1012200014432C60DEF8004075464E689443B603C4
:1012300000D514432C600D4D08352C684E6894433E
:10124000F60200D514432C60084D0C352C684E680E
:101250009443B60200D514432C605B1C0A6832FA32
:1012600003F47FF445AFBDE8F88F000000040140AF
:10127000001002400000014000040048000800483F
:10128000000C0048001000480014004842690A425F
:1012900001D081627047816170470AB181617047F6
:1012A0008162704701488068704700000801002093
:1012B000024881684268114481607047080100203B
:1012C00010B50024032000F077F8002000F008F8A3
:1012D00008B1012401E000F025F8204610BD00000F
:1012E00070B50E4E05460024706898B14FF47A71BF
:1012F000B1FBF0F00A490968B1FBF0F000F002FF21
:1013000040B9102D06D200222946501E00F034F8B4
:10131000356000E00124204670BD00000801002077
:10132000140100200B4808B5016E41F0010101666F
:10133000016E01F001010091816D41F080518165E4
:10134000806D00F0805000900348816821F4804156
:10135000816008BD0010024000700040002809DBD9
:1013600000F01F02012191404009800000F1E020BF
:10137000C0F8001170470000F0B40E4B1B680C461B
:10138000C3F30223C3F10705042D00D90425191D59
:10139000072901D2002300E0DB1E012606FA05F131
:1013A000491E214099409E40761E16403143F0BCB4
:1013B00002F081BF0CED00E0064900F0070208686A
:1013C0004FF6FF03184040EA0220034A104308602A
:1013D000704700000CED00E00000FA052B492C4B93
:1013E0000A6832214A432B4940B1B0F5007F0868B2
:1013F00029D020F4C06040F480602CE00868C0F37D
:101400004120022804D051F8800F20F4807022E09F
:10141000D1F8800020F48070C1F88000086820F4C2
:10142000C06040F400700860B2FBF3F0401C00E0C4
:10143000401E4A69520501D50028F9D14869400586
:101440000AD503207047C0F34120022806D051F886
:10145000800F40F48070086000207047D1F8800051
:1014600040F48070C1F88000086820F4C06040F447
:1014700000700860B2FBF3F0401C00E0401E4A69B7
:101480005205DBD50028F9D1D8E70000140100206F
:1014900040420F00007000402DE9F8430446006808
:1014A0000026BB4D00035ED5A86D0027C00008D400
:1014B000A86D40F08050A865A86D012700F080500D
:1014C0000090DFF8D092D9F8001041F48071C9F88B
:1014D0000010FFF7E7FE804606E000BFFFF7E2FEE0
:1014E000A0EB080002282BD8D9F80000C005F5D5DC
:1014F000D5F8900010F4407014D0216D814211D0C5
:10150000D5F89000D5F8901020F4407041F4803167
:10151000C5F89010D5F8901021F48031C5F89010DE
:10152000C5F89000C00711D0FFF7BCFE804641F21D
:10153000883907E0FFF7B6FEA0EB0801494501D95D
:1015400003260BE0D5F890008007F3D5D5F890007E
:10155000216D20F440700843C5F890001FB1A86DBC
:1015600020F08050A8652078C00707D0D5F8880003
:10157000616820F003000843C5F8880020788007E0
:1015800007D5D5F88800A16820F00C000843C5F8FD
:1015900088002078400707D5D5F88800E16820F05A
:1015A00030000843C5F888002078000707D5D5F833
:1015B0008800216920F0C0000843C5F88800207821
:1015C000C00607D5D5F88800616920F4407008434B
:1015D000C5F888002078800607D5D5F88800A1696D
:1015E00020F440600843C5F888002078400607D5FD
:1015F000D5F88800E16920F440500843C5F8880018
:101600002078000607D5D5F88800216A20F44040EC
:101610000843C5F888002088C00507D5D5F888009C
:10162000616A20F440300843C5F8880020688003D0
:1016300007D5D5F89C00A16A20F003000843C5F83F
:101640009C002088800507D5D5F88800E16A20F441
:1016500040200843C5F88800208840050FD5D5F8FC
:101660008800216B20F440100843C5F88800206BE7
:10167000B0F5801F03D1E86840F48010E86020884E
:1016800000050FD5D5F88800616B20F440000843B1
:10169000C5F88800606BB0F5800F03D1E86840F4AE
:1016A0008010E8602088C0040FD5D5F88800A16BB1
:1016B00020F040700843C5F88800A06BB0F1807F2F
:1016C00003D1E86840F48010E86020884FF00061A2
:1016D00080040ED5D5F88800E26B20F040601043FE
:1016E000C5F88800E06B884203D1E86840F48010B8
:1016F000E860208840040ED5D5F88800226C20F0E0
:1017000040601043C5F88800206C884203D1E86827
:1017100040F48010E860208800040FD5D5F88800D8
:10172000616C20F040500843C5F88800606CB0F14F
:10173000805F03D1E86840F48030E8602068C0032F
:101740000FD5D5F88800A16C20F040400843C5F8BB
:101750008800A06CB0F1804F03D1E86840F480307D
:10176000E860206840030FD5D5F89C00E16C20F4B8
:1017700040100843C5F89C00E06CB0F5001F03D191
:10178000E86840F48010E8603046BDE8F883000067
:1017900000100240007000402DE9F0470E460500A1
:1017A0004FF0000725D0DFF8AC81D8F8000000F03A
:1017B0000F00B0420CD2D8F8001021F00F013143D5
:1017C000C8F80010D8F8000000F00F00B04210D1A7
:1017D0002968614CC80741F2883A5AD06868DFF836
:1017E0007C91032808D0022820682DD040050028CD
:1017F0002CDB0120BDE8F08720688001F9D5E06886
:1018000000F00302E068C0F30310401C032A19D063
:10181000534A00BFB2FBF0F0E268C2F30622504325
:10182000E268C2F34162521C5200B0FBF2F048453C
:1018300017D9A06810F0F00F0CD0880711D5A86850
:1018400040B10EE0474AE5E78003D0E700F0B6F884
:10185000484506D9A06820F0F00040F08000A06064
:101860008027A068696820F003000843A060FFF7A4
:1018700019FD814606E000BFFFF714FDA0EB09014A
:1018800051453AD8A068696800F00C00B0EB810FB0
:10189000F2D12868810714D5400703D5A06840F429
:1018A000E060A0602878000705D5A06820F46050AB
:1018B00040F4E060A060A068A96820F0F000084350
:1018C00004E0802F03D1A06820F0F000A060D8F8D9
:1018D0000010404601F00F01B14216D9016821F015
:1018E0000F0131430160FFF7DDFC074607E000BF51
:1018F000FFF7D8FCC11B514501D903207AE7D8F87E
:10190000000000F00F00B042F2D12878400705D562
:10191000A068E96820F4E0600843A0602878000728
:1019200006D5A068296920F4605040EAC100A06093
:1019300000F044F8A1680C4AC1F30311515C01F0B6
:101940001F01C8400949086009480068BDE8F04720
:10195000FFF7C6BC002002400010024000B4C404DF
:101960000024F40000366E01AC440008140100208D
:10197000080100200548064900688968054AC1F346
:101980000221515C01F01F01C84070471401002082
:1019900000100240BC4400080548064900688968F8
:1019A000054AC1F3C221515C01F01F01C8407047D4
:1019B0001401002000100240BC440008184910B572
:1019C0008868C0F381021748012A0BD08A68164B39
:1019D000C2F38102022A06D08A68C2F38102032A76
:1019E00003D0002010BD184610BDCA6802F00304E1
:1019F000CA68C2F30312521C032C02D0B0FBF2F0EF
:101A000001E0B3FBF2F0CA68C968C2F30622504392
:101A1000C1F34161491C4900B0FBF1F010BD000069
:101A2000001002400024F40000366E012DE9F84356
:101A300004007AD02078FA4DC00747D0A868E9683A
:101A400000F00C0001F003010C2802D0082817D088
:101A500001E0032914D06068B0F5803F17D0B0F5DD
:101A6000A02F286817D020F480302860286820F440
:101A7000802028606068E0B1FFF714FC064614E09F
:101A80002868800322D560680028D2D01EE028682C
:101A900040F48030EDE740F480202860F7E700BF95
:101AA000FFF700FC801B642870D828688003F7D5F6
:101AB0000CE0FFF7F7FB064605E000BFFFF7F2FB7F
:101AC000801B6428F0D828688003F7D4207880072A
:101AD0004CD5A868E96800F00C0001F003010C285F
:101AE00002D004280DD001E002290AD0E0680028C5
:101AF00028682BD040F480702860FFF7D3FB06469F
:101B000019E02868400502D5E068002891D068688F
:101B1000217C20F0FE4040EA01606860C148006816
:101B2000FFF7DEFB002800D120E076E1FFF7BAFBEB
:101B3000801B0228B8D828684005F7D56868217C42
:101B400020F0FE4040EA016068600FE020F4807001
:101B50002860FFF7A7FB064605E000BFFFF7A2FBE2
:101B6000801B0228A0D828684005F7D420780007F9
:101B700029D560690028D5F8940013D040F0010001
:101B8000C5F89400FFF78EFB064606E090E000BF24
:101B9000FFF788FB801B022886D8D5F894008007C1
:101BA000F6D510E020F00100C5F89400FFF77AFBAD
:101BB000064604E0FFF776FB801B022878D8D5F8AC
:101BC00094008007F6D42078400761D5A86D0026E0
:101BD000C00008D4A86D40F08050A865A86D01260B
:101BE00000F08050009090480168C90511D4016848
:101BF000804641F480710160FFF754FB074604E022
:101C0000FFF750FBC01B022852D8D8F80000C005CF
:101C1000F6D5A068012815D00528D5F8900016D073
:101C200020F00100C5F89000D5F8900020F00400E5
:101C3000C5F89000A06841F28838B8B1FFF732FBD0
:101C400007460EE0D5F8900040F00100F0E740F0C4
:101C50000400C5F89000F5E7FFF724FBC11B4145E0
:101C600026D8D5F890008007F6D50CE0FFF71AFBD0
:101C7000074604E0FFF716FBC11B414518D8D5F80D
:101C800090008007F6D41EB1A86D20F08050A865A2
:101C90002078800629D5A0690028D5F8980013D0AF
:101CA00040F00100C5F89800FFF7FCFA064606E090
:101CB00077E000BFFFF7F6FA801B022877D8D5F847
:101CC00098008007F6D510E020F00100C5F89800D4
:101CD000FFF7E8FA064604E0FFF7E4FA801B022863
:101CE00065D8D5F898008007F6D4E069F0B3A96804
:101CF000C1F38101032961D00228286820F0807097
:101D000028600BD0E86820F00300E860E8684749E5
:101D10000840E860FFF7C6FA04464BE0FFF7C2FA56
:101D2000064604E0FFF7BEFA801B02283FD8286869
:101D30008001F7D4F4E908016FF00F0202EB011102
:101D40000843218A5204490802EB4151A26841EA42
:101D500002210843217D4FF07E42490802EB416198
:101D60000843217B40EAC160E96800E062E0304A54
:101D700011400843E860286840F080702860E868F7
:101D800040F08070E860FFF78DFA044605E000BF80
:101D9000FFF788FA001B022809D828688001F7D5C8
:101DA00048E004E0FFF77EFA001B022802D9032076
:101DB000BDE8F88328688001F4D43BE00128F7D01F
:101DC000E868226A00F00301914226D1616A00F0BE
:101DD000F0020901103991421FD1A26A00F4FE41BC
:101DE000B1EB022F19D194F82C2000F07841B1EB1F
:101DF000C26F12D1218E00F4C00249084905A1F535
:101E00000011914209D194F8341000F0C0604908E3
:101E10004906A1F1007181420CD00120C8E7000001
:101E2000001002400801002000700040FFFFEEFE9D
:101E30000C809F010020BBE77047000038B50168A7
:101E400004464A688868C043430606D5C30704D1E0
:101E5000D3435B0601D4E16C05E0830708D4D34388
:101E60001B0605D4216D01B02046BDE8304008476F
:101E7000830603D5430601D5C30551D4D3439B063E
:101E80004ED443060AD494F85D30032B49D0236E18
:101E900043F004032366CB688B680093830609D460
:101EA000236E43F0010323668B6800930B6823F0D5
:101EB00040030B60C00506D4206E40F00800206689
:101EC000206880680090206E002829D02068416832
:101ED00021F0E0014160012084F85D00900701D409
:101EE000D00722D02068416821F003014160114DE4
:101EF000A06D40B18563A06DFEF78CFF18B1206E18
:101F000040F040002066606D002809D08563606D58
:101F1000FEF780FF002803D0206E40F040002066CE
:101F200038BDC8688868009038BD2046FFF784FF38
:101F300038BD0000093300082DE9F041040005D048
:101F40000025A56294F85D0018B107E00120BDE806
:101F5000F08184F85C50204600F04AF8022384F8AF
:101F60005D302068016821F040010160E0684FF4B5
:101F7000E066B04201D9002101E04FF48051B0F594
:101F8000706F02D0B04200D0A562276B012227B942
:101F9000B04201D9236300E02263D4E9010318436E
:101FA000D4E9043633431843238B03F400731843F6
:101FB000E3691843236A1843A36A18432368186027
:101FC000636B606AA66918430427E36807EA16464C
:101FD000334318430843216848602068C16921F4ED
:101FE0000061C161256684F85D200020AFE7000034
:101FF00030B587B0044614216846FEF741F93B4DE1
:10200000236800213A4802220524AB4221D1036E05
:1020100043F480530366036E03F480530593C36C4B
:1020200043F00103C364C06C00F001000590E020A0
:102030000090CDE90121CDE9031469464FF09040AD
:10204000FFF748F8002211462320FFF795F92320D7
:1020500022E0284DAB4223D1836D43F48043836556
:10206000836D03F480430593C36C43F00203C364A0
:10207000C06C00F002000590A8000090CDE901219D
:10208000CDE9031469461C48FFF724F800221146E5
:102090002420FFF771F92420FFF760F907B030BD65
:1020A000164CA342FAD1836D43F400438365836DDC
:1020B00003F400430593C36C43F00403C364C06C92
:1020C00000F0040005904FF4E0500090CDE90121AC
:1020D0000620CDE9031069460948FEF7FBFF002200
:1020E00011463320FFF748F93320D5E7003001408F
:1020F000001002400038004000040048003C00404E
:102100000008004810B5401EB0F1807F01D30120C7
:1021100010BD4FF0E02460610F21601702F0CBF892
:102120000020A06107202061002010BD704770478B
:1021300070470000F0B590F83C20012A58D00122E9
:1021400080F83C20CA688B6822F440721A434B68BE
:1021500022F480621A430B6822F400621A430B696E
:1021600022F480521A434B6922F400521A430B6B3B
:1021700022F480421A430B8B22F4702242EA03427B
:102180001C4C036800271C4D1C4EA34203D0AB42DD
:1021900001D0B34205D1D1F81CC022F0805242EAEE
:1021A0000C02A34203D0AB4201D0B3421BD1B1F821
:1021B00028C022F4700242EA0C52D1F820C022F06A
:1021C000807242EA0C02D1F824C022F0007242EA86
:1021D0000C02A34203D0AB4201D0B34203D1C96A7F
:1021E00022F000520A435A6480F83C700020F0BD8F
:1021F0000220F0BD002C014000340140005001409D
:10220000704770477047000070B590F83C20012A75
:1022100027D0012580F83C50022280F83D20036839
:102220005A689E68104CA34205D0104CA34202D0BD
:102230000F4CA34203D122F470044A6822430D4C90
:1022400022400C688968144326F0800211435C60C8
:102250000268916080F83D50002180F83C100846EB
:1022600070BD022070BD0000002C01400034014010
:10227000005001408FFFFFFD704710B5040003D0F0
:1022800094F83D0010B107E0012010BD002084F853
:102290003C00204600F00CF8022084F83D00211D8F
:1022A000206801F08BF8012084F83D00002010BD6B
:1022B00030B587B0044614216846FDF7E1FF246875
:1022C000274D0023274902222748AC4216D10C6E25
:1022D00044F400640C660C6E04F400640594CC6C49
:1022E00044F00404CC64C96C01F004010591082198
:1022F0008DE80E00CDE9033269462EE01B4DAC425D
:1023000011D1886D40F010008865886D002200F0C2
:102310001000059011463620FFF72EF83620FFF703
:102320001DF807B030BD124DAC42FAD10C6E44F42A
:1023300000540C660C6E04F400540594CC6C44F00C
:102340000404CC64C96C01F00401059140218DE8BE
:102350000E000421CDE903316946FEF7BBFEE0E73C
:10236000002C01400010024000080048001000400E
:102370000034014070B5044690F83C0001281CD0A0
:10238000012584F83C50022084F83D0022689068C2
:102390002F4B184020F47F4090600868B0F5005F34
:1023A0002BD013DC40284BD009DCB8B1102815D055
:1023B000202813D030283DD110E0022070BD5028D5
:1023C00027D060282DD0702834D10BE010F00F0FEB
:1023D00030D10111A1F5803107292BD8226801469F
:1023E000104625E0CB68D1E90121206801F050F8C2
:1023F0002068816841F0770109E0CB68D1E90121CB
:10240000206801F045F82068816841F480418160CE
:1024100010E0CA684968206801F04EF85021206831
:1024200006E0CA684968206801F098F860212068D1
:1024300001F038F884F83D50002084F83C0070BD6D
:10244000CA684968206801F037F840212068EFE742
:1024500088FFCEFF704700002DE9F041044690F858
:102460003C000D4601283DD0012684F83C60022046
:1024700084F83D00AAB3042A46D02068082A55D023
:10248000D5E90027E968036A23F480530362D0F892
:102490001CC0036A2CF4407C4CEA07274FF6FF7CF3
:1024A00027F470470CEA013139434FF4204723F4F5
:1024B000204307EA02321A43C16102622068C169FF
:1024C00021F44061C1612068C169AA6841EA022122
:1024D000C0F81C1084F83D60002084F83C00BDE882
:1024E000F08101E00220FAE7D5E90012EB682068EC
:1024F00000F0F4FF2068816921F00C0181612068FF
:102500008169AA6811430FE0D5E90012EB682068E1
:1025100001F036F82068816921F44061816120680A
:102520008169AA6841EA02218161D3E7D5E9002CDB
:102530002F7B016A21F480710162C169036A21F075
:10254000030141EA0C0121F0F00C39074FF4206738
:102550004CEA116123F4206307EA02221A43C161A5
:1025600002622068C16921F00C01C1612068C16963
:10257000AA681143ACE710B5040003D094F83D00FD
:1025800010B107E0012010BD002084F83C00204677
:1025900000F00CF8022084F83D00211D206800F0B6
:1025A0000DFF012084F83D00002010BD704770B57C
:1025B0000446006801694FF00005C943890715D436
:1025C000C168C943890711D4E91E01610120207740
:1025D000206880698007204602D0FFF73BFF04E0B7
:1025E00000F0E3F8204600F0E1F825772068016963
:1025F000C943490717D4C168C943490713D46FF0C9
:1026000004010161022020772068806910F4407F76
:10261000204602D0FFF71EFF04E000F0C6F8204677
:1026200000F0C4F8257720680169C943090716D46A
:10263000C168C943090712D46FF008010161042081
:1026400020772068C0698007204602D0FFF702FF8C
:1026500004E000F0AAF8204600F0A8F825772068EA
:102660000169C943C90617D4C168C943C90613D44F
:102670006FF010010161082020772068C06910F414
:10268000407F204602D0FFF7E5FE04E000F08DF821
:10269000204600F08BF8257720680169C943C907F7
:1026A00008D1C168C943C90704D1891E0161204608
:1026B00000F07DF820680169C943090609D4C168A2
:1026C000C943090605D46FF0800101612046FFF778
:1026D0002EFD20680169C943C90509D4C168C943F1
:1026E000090605D46FF4807101612046FFF71EFDD5
:1026F00020680169C943490609D4C168C94349062C
:1027000005D46FF040010161204600F051F82068C7
:102710000169C943890609D4C168C943890605D43A
:102720006FF0200101612046FFF702FD206801697A
:10273000C943C90209D4C168C943C90205D46FF4A9
:10274000801101612046FFF75CFD20680169C943E3
:10275000890209D4C168C943890205D46FF4001104
:1027600001612046FFF74CFD20680169C943490219
:1027700009D4C168C943490205D46FF480010161DD
:102780002046FFF73FFD20680169C94309020BD4C9
:10279000C168C943090207D46FF4000101612046F2
:1027A000BDE87040FFF768BD70BD70477047704767
:1027B000704790F87C10012918D0012180F87C1016
:1027C0002421C0F8801050F8601B0A680B6823F0C1
:1027D00001030B6022F000510022426050F8603C7F
:1027E000196020210162027710467047022070476D
:1027F000704770B5044690F87C0001281DD0012078
:1028000084F87C002420C4F88000206805680268F1
:1028100022F0010202602068826822F060620A43AE
:102820008260204600F0C8FE206805602020C4F8C1
:102830008000002084F87C0070BD022070BD70B55F
:10284000044690F87C0001281DD0012084F87C000B
:102850002420C4F8800020680568026822F0010284
:1028600002602068826822F060420A43826020464B
:1028700000F0A2FE206805602020C4F8800000203F
:1028800084F87C0070BD022070BD704770477047AF
:102890002DE9F04103680446D8691A68996810F078
:1028A0000F0F4FF0000569D05E4E02F490770E4096
:1028B00037437DD0C70709D0D70507D501271F6249
:1028C000D4F8883043F00103C4F8883083070AD570
:1028D000CB0708D0276802233B62D4F8883043F046
:1028E0000403C4F8883043070AD5CB0708D027680B
:1028F00004233B62D4F8883043F00203C4F88830E4
:1029000003070CD502F02003334308D026680823C0
:102910003362D4F8883043F00803C4F88830D4F820
:102920008830002B3CD0800609D502F0200001F051
:102930008051084303D0E16E09B120468847D4F89E
:10294000880021688968490601D400072AD52046F5
:1029500000F002FF2068816849061ED5816821F0D9
:1029600040018160A06FC0B12F498163A06FFEF765
:1029700051FA002814D0A06F816B0AE0860617D5A3
:1029800002F0200601F080573E4311D0E16E24E0B2
:102990002046BDE8F04108470AE02046FFF777FFF0
:1029A000BDE8F0812046FFF772FFC4F88850F7E7D2
:1029B000C60209D54E0207D54FF480101862204692
:1029C000BDE8F041FFF762BF060609D502F08006B8
:1029D00001F400010E4303D0216F0029D8D1DFE7B5
:1029E00041060DD551060BD51968204621F040014E
:1029F00019602021C4F88010256700F027FACFE77E
:102A0000010206D5510004D52046BDE8F041FFF78C
:102A10003CBFC001C4D5002AC2DA2046BDE8F0415F
:102A2000FFF7E6BE010000104337000810B50400B0
:102A300003D0D4F8800010B107E0012010BD0020C1
:102A400084F87C00204600F027F82420C4F8800099
:102A50002068016821F001010160204600F0A2FF1A
:102A60000128EBD0A06A10B1204600F0D7FD206805
:102A7000416821F4904141602068816821F02A0179
:102A800081602068016841F0010101602046BDE8D5
:102A9000104000F027BE000030B587B00446142176
:102AA0006846FDF7EDFB2468274D002227490223E5
:102AB0002748AC4220D1CC6D44F00104CC65CC6DEC
:102AC00004F001040594CC6C44F00404CC64C96C9B
:102AD00001F00401059103210091CDE901320821A3
:102AE000CDE903216946FEF7F5FA002211465B2085
:102AF000FEF742FC5B2022E0164DAC4221D10C6E69
:102B000044F480440C660C6E04F480440594CC6C50
:102B100044F00404CC64C96C01F004010591302137
:102B20000091CDE901320721CDE903216946FEF785
:102B3000D1FA002211462520FEF71EFC2520FEF7C3
:102B40000DFC07B030BD00000080004000100240C6
:102B5000000800480038014070B5D0F88430202BC0
:102B60006DD1B9B1B2B190F87C30012B67D001239F
:102B700080F87C308165A0F85C20A0F85E20002100
:102B8000C16683684FF48056FF24B34207D10369BE
:102B900013B11CE0012070BD40F2FF131DE07F2542
:102BA0009BB1B3F1805F15D0A0F86010C0F8881019
:102BB0002223C0F8843003689C6844F001049C60C0
:102BC000436EB3F1005F0ED027E0036943B9A0F86C
:102BD0006040EBE703691BB13F23A0F86030E5E7F5
:102BE000A0F86050E2E7B0F86830934215D88268E8
:102BF000B24201D1026972B1124AC26680F87C10F9
:102C000001680A6842F480720A600068816841F0D5
:102C1000805181600FE00C4AEFE78268B24201D137
:102C2000026952B1094AC26680F87C1000680168E6
:102C300041F490710160002070BD054AF3E7022065
:102C400070BD00000539000805380008A5380008E7
:102C5000A53700082DE9F04107461E48002501264A
:102C600087421AD11D4CDFF87080227818F80200D4
:102C70004B2804D0522802D0521C227007E016497B
:102C80001748521C00F094F81648257006702178F9
:102C9000012241440F48FFF75FFF1148874217D1D7
:102CA000124C114F2278B85C0A2802D0521C2270B4
:102CB00006E00D490A4800F07BF80D4825700670C3
:102CC00020783918BDE8F04101220548FFF744BFDC
:102CD000BDE8F081B40300200100002005010020C0
:102CE0002803002000000020A80200200601002088
:102CF000070100202DE9F8430446D0F880001F4664
:102D000016460D46202851D1DDB1D6B194F87C008D
:102D100001284BD0012084F87C004FF00008C4F853
:102D200088802120C4F880001834FEF7BBFAA687FB
:102D30008146E68754F8100C183CB0F5805F03D04C
:102D400004E00120BDE8F883206910B12E4600257B
:102D500010E000260EE08021204601F073FAB8B999
:102D6000C6B116F8010B21688862B4F85600401EFF
:102D7000A4F85600B4F856004B464FF000020097F6
:102D80000028E8D14FF04001204601F05BFA30B155
:102D90000320D7E735F8020BC0F30800E3E7202053
:102DA000C4F8800084F87C800020CBE70220C9E7CB
:102DB000D0F88030202B3ED149B342B390F87C301C
:102DC000012B38D0012380F87C300165A0F8542015
:102DD000A0F8562000210167C0F888102122C0F811
:102DE0008020436E4FF48052B3F1005F836810D0AF
:102DF000934201D10269E2B1104A026780F87C1067
:102E00000068016841F080010160002070470120E6
:102E10007047934201D102694AB1094A026780F8BA
:102E20007C100068816841F400018160EDE7054A8B
:102E3000F4E7054AE1E7022070470000B1410008CD
:102E4000F141000859410008154100087047FEE7AC
:102E500000EB8100006E00F0F84070478068C0F31E
:102E6000C00070478068C0F380007047C06810F4ED
:102E7000406F01D00020704701207047042303EA0F
:102E8000D15310B518444369C1F3045107248C4051
:102E9000A3438A401343436110BD00EB8100016EE0
:102EA00021F0004111430166704700000148FFF71F
:102EB000EFBC00002803002030B589B0202168460F
:102EC000FDF7DEF9214820490024C0E900148460A0
:102ED000042585610121C460C0E90441047741777C
:102EE000056280F82440C462046380F83810C4632B
:102EF00080F84040FDF790FD154800900620CDE990
:102F000001047F200594CDE9030569460F48FDF7CC
:102F10004BFB104800900C20019069460B48FDF7D0
:102F200043FB0D4800901220019069460748FDF7C9
:102F30003BFB0A4800901820019069460348FDF7C2
:102F400033FB09B030BD000000010050BC0200207E
:102F50000200300404006008000180210000524794
:102F60002DE9F04387B014216846FDF789F93D4803
:102F7000C16C41F00401C164C16C01F00401059110
:102F8000C16C41F02001C164C16C01F020010591C8
:102F9000C16C41F00101C164C16C01F001010591F6
:102FA000C16C41F00201C164C16C01F002010591E4
:102FB000C16C41F00801C164C06C2B4F00F00800E7
:102FC0000590002276213846FEF767F9DFF89C90DD
:102FD000002204214846FEF760F94FF400500090AB
:102FE00023480024CDE90104DFF888806946404683
:102FF000FEF770F8762000900125CDE9015469466E
:1030000038460394FEF766F84FF4E056CDE90064C5
:10301000694638460294FEF75DF84FF44070CDE9FA
:103020000004694640460294FEF754F8CDE9006476
:1030300069464FF090400294FEF74CF8042000904F
:10304000CDE90154694648460394FEF743F800224F
:1030500011462820FEF790F92820FEF77FF907B0E7
:10306000BDE8F0830010024000040048000C004856
:103070000000111000080048104810B50E4901600A
:103080004FF4E1314160002181600C22C160C0E950
:103090000412816101628162FFF7C8FC00210748C8
:1030A000FFF7CDFB00210548FFF7A3FBBDE810406B
:1030B0000248FFF77EBB000000800040280300208C
:1030C0000C480B494FF47062016000214160C0E977
:1030D00002124FF400720161C0E905120162072279
:1030E0004162C0E90A1201634163FEF725BF000097
:1030F00000300140400400200E480D494FF4E062CA
:1031000001604FF4827141600021C0E90212022285
:10311000C0E90421120282611822C0E907210722B6
:103120004162C0E90A12016308214163FEF704BF4E
:1031300000380040A40400200E480D494FF470628E
:1031400001604FF4827141600021C0E902124FF426
:1031500000720161C0E905122822C0E90721072297
:103160004162C0E90A12016308214163FEF7E4BE2F
:10317000003C00400805002010B598B000241794CA
:103180001494159416941294139411940D940E940F
:103190000F94342168461094FDF772F817481649C9
:1031A000C0E900148460C460046144618461FFF775
:1031B00064F84FF48050149014A91048FFF7DAF81F
:1031C0000E48FFF7D8F91194129411A90B481394E3
:1031D000FFF71AF80120CDE90D400F940C220DA93C
:1031E00006481094FFF738F90794694603480B9492
:1031F000FEF7A0FF18B010BD002C01406C050020A8
:1032000010B598B000241794149415941694129441
:10321000139411940D940E940F94342168461094D5
:10322000FDF72EF8194818490160A921C0E90114D9
:1032300040F2E731C0E9031444618461FFF71DF8EF
:103240004FF48050149014A91048FFF793F80F48DA
:10325000FFF791F91194129411A90C481394FEF7F9
:10326000D3FF0DAA0A20012182E81300109000224A
:103270000DA90648FFF7F0F80794694603480B9438
:10328000FEF758FF18B010BD00340140EC050020D7
:10329000114810B50F4901604FF4E1314160002140
:1032A00081600C22C160C0E904128161C1610162C8
:1032B00041628162FFF7BAFB00210748FFF7BFFABE
:1032C00000210548FFF795FABDE810400248FFF7D6
:1032D00070BA000000380140B4030020FEE77047D8
:1032E000704700000148FEF7A9BD0000400400201F
:1032F0000148FEF7A3BD0000A40400200148FEF72A
:103300009DBD00000805002010B5806A0021A0F8CE
:103310004610C187FEF790FD10BD7047FDF7C8BF8E
:1033200010B5A8B0382115A8FCF7AAFF142123A8CE
:10333000FCF7A6FF54216846FCF7A2FF0020FEF729
:103340004DF8012015900004169002200324062158
:103350001C90CDE91D415521CDE91F1021902290EF
:1033600015A8FEF763FB0F20CDE923040024259464
:103370002694082123A82794FEF70EFA48F221008C
:10338000CDE900044007119006946846FEF784F8E2
:1033900028B010BD0548016841F47001016003497F
:1033A0004FF00060803908607047000088ED00E051
:1033B0000148FFF7FCB80000AC0500202DE9F04FF4
:1033C00002682A4B2A4E2B4FDFF8ACC02B4C2C4DF9
:1033D0004FF0804B98420BD0584509D0B04207D0EF
:1033E000B84205D0604503D0A04201D0A84204D124
:1033F00022F070084A6842EA0802DFF88880DFF8A5
:103400008890DFF888A0984211D058450FD0B0427C
:103410000DD0B8420BD0604509D0A04207D040453E
:1034200005D0484503D0504501D0A84203D122F42D
:103430004076CA6832434E6922F08002324302600D
:103440008A68C2620A688262984209D0A04207D0A4
:10345000404505D0484503D0504501D0A84201D190
:103460000969016301214161BDE8F08F002C014031
:103470000004004000080040000C004000340140FF
:10348000005001400040014000440140004801401C
:1034900010B5846842EA032224F47F440A4322439D
:1034A000826010BD8268034B1A400A4342F0070154
:1034B000816070478FFFCFFF10B5036A046A24F064
:1034C00001040462846924F0F00444EA021423F045
:1034D0000A020A438461026210BD000070B5046AEA
:1034E00024F0010404628469056A154EB04214D0C8
:1034F000B0F1804F11D0134EB0420ED0124EB042F8
:103500000BD0124EB04208D0114EB04205D0114E31
:10351000B04202D0104EB04203D124F00304144351
:1035200001E044F001041A0724F0F00444EA1262B6
:1035300025F00A0301F00A0119438261016270BD9E
:10354000002C01400004004000080040000C004036
:1035500000340140004001400050014010B5036AB2
:1035600023F0100303628369046A23F4704343EA7F
:10357000023224F0A00343EA01118261016210BD0E
:1035800030B5046A24F0100404628469056A24F4E6
:10359000407444EA022222F470444FF6FF7202EAB9
:1035A00003322243A02425F0A00304EA01111943A9
:1035B0008261016230BD00003FB514A1D1E9002154
:1035C000CDE9002113A2D2E90012CDE90212416E29
:1035D000B9B1026891689268C1F34261520F1DF857
:1035E0000240E50002ACA25CB5FBF2F2A0F86A2052
:1035F0001DF80120615CD200B2FBF1F1A0F8681067
:103600003FBD0121A0F86A10F8E7000001010103A5
:1036100007010000080402040801010190F82810C5
:10362000C90706D001684A68C36A22F400321A4307
:103630004A6090F82810890706D501684A68036B2C
:1036400022F480321A434A6090F82810490706D5C0
:1036500001684A68436B22F480221A434A6090F85A
:103660002810090706D501684A68836B22F40042D6
:103670001A434A6090F82810C90606D501688A687E
:10368000C36B22F480521A438A6090F8281089068E
:1036900006D501688A68036C22F400521A438A60D6
:1036A00090F82810490611D501684A68436C22F445
:1036B00080121A434A60416CB1F5801F06D101683F
:1036C0004A68836C22F4C0021A434A6090F82810BA
:1036D000090606D501684A68C06C22F4002202433C
:1036E0004A607047F8B500260446C0F88860FDF7C8
:1036F000D9FD0546206800686FF07E47000708D5B1
:103700002B4600224FF400112046009700F09AFD4E
:1037100060B92068006840070AD52B4600224FF4A4
:1037200080012046009700F08DFD08B10320F8BD10
:103730002020C4F88000C4F8840084F87C60002055
:10374000F8BD10B5806A0021A0F85E10A0F85610F0
:10375000FFF79DF810BD000001680A6822F490721E
:103760000A6001688A68044B1A408A602021C0F808
:1037700084100021C1667047FEFFFFEF70B500297D
:103780000CD1074D002410212846FDF77FFD642051
:10379000FDF780FC641CE4B20A2CF4D370BD000079
:1037A0000004004810B5B0F86020D0F884300168FB
:1037B000222B04D0886940F00800886110BD496A56
:1037C000836D11401980816D891C8165B0F85E1090
:1037D000491EA0F85E10B0F85E100029EED1016815
:1037E0000A6822F490720A6001688A6822F0010275
:1037F0008A602021C0F884100021C166FFF72AFAF0
:1038000010BD000070B50446B0F86060D0F88400C8
:10381000222805D02068816941F00801816170BDCE
:10382000B4F8685023E02068406AA16D30400880F9
:10383000A06D801CA065B4F85E00401EA4F85E0078
:10384000B4F85E0088B92068016821F480710160D5
:1038500020688168114A114081602020C4F88400EA
:103860000020E0662046FFF7F5F96D1EADB2002D91
:10387000D9D1B4F85E000028D1D0B4F868108142E4
:10388000CDD92068816821F0805181600448E066CC
:103890002068016841F02001016070BDFEFFFFEF6C
:1038A000A537000810B5B0F86020D0F88430016862
:1038B000222B04D0886940F00800886110BD496A55
:1038C0001140826D1170816D491C8165B0F85E10E8
:1038D000491EA0F85E10B0F85E100029EED1016814
:1038E0000A6822F490720A6001688A6822F0010274
:1038F0008A602021C0F884100021C166FFF7AAF970
:1039000010BD000070B50446B0F86060D0F88400C7
:10391000222805D02068816941F00801816170BDCD
:10392000B4F8685023E02068406AA16D3040087008
:10393000A06D401CA065B4F85E00401EA4F85E00B7
:10394000B4F85E0088B92068016821F480710160D4
:1039500020688168114A114081602020C4F88400E9
:103960000020E0662046FFF775F96D1EADB2002D10
:10397000D9D1B4F85E000028D1D0B4F868108142E3
:10398000CDD92068816821F0805181600448E066CB
:103990002068016841F02001016070BDFEFFFFEF6B
:1039A000A53800082DE9F05F0446016880682369A6
:1039B000E5691843636900272B431843636EF64A91
:1039C00003430868F54D28401843086020684168A3
:1039D000E36821F44051194341602168A069914294
:1039E00001D0236A18438B68ED4D2B4003438B6055
:1039F0002068C16A636A21F00F011943C162EA4974
:103A0000E84B20688E1598420DD1D1F8881011F03E
:103A1000030106D0012969D0022965D0032950D1BC
:103A200066E001254EE0E14B98420BD1D1F88810B9
:103A300011F00C0156D0042958D0082954D00C2973
:103A40003FD155E0DA4B98420BD1D1F8881011F0F4
:103A5000300147D0102949D0202945D0302930D114
:103A600046E0D44B98420BD1D1F8881011F0C00138
:103A700038D040293AD0802936D0C02921D137E02A
:103A8000CD4B98420DD1D1F8881011F4407129D056
:103A9000B1422BD0B1F5007F26D0B1F5407F10D1D7
:103AA00026E090420DD1D1F8881011F4406119D070
:103AB000B1F5806F1AD0B1F5006F15D0B1F5406F38
:103AC00016D01025DFF8F4A24FF000094FF4004B98
:103AD00090426ED175B1022D29D0042D59D0082DF8
:103AE00068D176E00025EDE70225EBE70425E9E75C
:103AF0000825E7E7FDF73EFF4DE0012851D00228F9
:103B000051D0032851D0042851D0052853D006287D
:103B100053D0072853D0082853D0092853D00A2857
:103B200053D00B2853D03AE0B1FBF0F06CE0606A60
:103B3000A8B1012817D0022817D0032817D00428CD
:103B400017D0052817D0062817D0072817D008281F
:103B500017D0092817D00A2817D00B2817D0012012
:103B6000BAFBF0F050E00220FAE70420F8E7062064
:103B7000F6E70820F4E70A20F2E70C20F0E710202F
:103B8000EEE72020ECE74020EAE78020E8E7304637
:103B9000E6E7FDF713FF0146606A0028ADD101207A
:103BA000C2E70220C0E70420BEE70620BCE70820E9
:103BB000BAE738E14AE00A20B6E70C20B4E7102063
:103BC000B2E72020B0E74020AEE78020ACE73046E7
:103BD000AAE7606AA8B1012822D0022822D00328CF
:103BE00022D0042822D0052822D0062822D0072857
:103BF00022D0082822D0092822D00A2822D00B2837
:103C000022D00120BBFBF0F0002820D0616888465C
:103C100001EB4101814219D8B0EB083F16D817E0FB
:103C20000220EFE70420EDE70620EBE70820E9E7B4
:103C30000A20E7E70C20E5E71020E3E72020E1E792
:103C40004020DFE78020DDE73046DBE701270EE29A
:103C50007DB3022D7ED0042D73D0082DF6D1606A7D
:103C6000A8B101286ED002286DD003286CD004289A
:103C70006BD005286AD0062869D0072868D00828A4
:103C800067D009287ED00A287DD00B2800D00126D5
:103C900032464D46002358460021FCF7B9FA090286
:103CA00041EA106102024FEA580010186941424689
:103CB0003DE0FFE7FDF75EFE9AE0012815D00228FF
:103CC00015D0032815D0042815D0052815D00628AE
:103CD00015D0072815D0082815D0092815D00A288E
:103CE00015D00B2814D0012612E0022610E004267D
:103CF0000EE006260CE008260AE00A2608E00C265C
:103D000006E0102604E0202602E0402600E080269F
:103D10000023084632464D461946FCF779FA090257
:103D2000626841EA106103025008181869410023D3
:103D3000FCF76EFA224AA0F54071914270D985E7EE
:103D400008E053E05AE05BE05CE05DE05EE05FE0ED
:103D500060E061E0606AC0B1012833D0022833D04E
:103D6000032833D0042833D0052833D0062833D095
:103D7000072833D0082833D0092833D00A2833D075
:103D80000B2801E04AE04CE000D0012632464D46C7
:103D90000023504680E7000000800040F369FFCF19
:103DA000FFF4FF11003801400010024000440040C1
:103DB00000480040004C0040005000400024F40047
:103DC000FFFC0F000226E1E70426DFE70626DDE719
:103DD0000826DBE70A26D9E70C26D7E71026D5E721
:103DE0002026D3E74026D1E78026CFE7FDF7E6FD82
:103DF0000146606A00283FF476AF5EE7022647E797
:103E0000042645E7062643E7082641E70A263FE75A
:103E10000C263DE710263BE7202639E7402637E70A
:103E200023E1802634E7E0694FF6EF7858456ED1FC
:103E3000092D84D2DFE805F006093C05800505055B
:103E4000830003E7FDF796FD01E0FDF7A5FD0146C0
:103E5000606AA8B1012815D0022815D0032815D012
:103E6000042815D0052815D0062815D0072815D008
:103E7000082815D0092815D00A2815D00B2814D0E9
:103E8000012612E0022610E004260EE006260CE0D1
:103E900008260AE00A2608E00C2606E0102604E0C0
:103EA000202602E0402600E08026B1FBF6F01AE072
:103EB000606AA8B101282BD002282BD003282BD070
:103EC00004282BD005282BD006282BD007282BD050
:103ED00008282BD009282BD00A282BD00B2800D05B
:103EE0000126BAFBF6F04100606801EB5001B1FB1E
:103EF000F0F080B2A0F110014145A2D84FF6F07168
:103F00000140C0F3420001432068C160AFE046E0D9
:103F10000226E6E70426E4E70626E2E70826E0E7CD
:103F20000A26DEE70C26DCE71026DAE72026D8E7AB
:103F30004026D6E78026D4E7FDF740FD87E7606A94
:103F4000A8B1012817D0022817D0032817D00428B9
:103F500017D0052817D0062817D0072817D008280B
:103F600017D0092817D00A2817D00B2800D001260F
:103F7000BBFBF6F0B7E70226FAE70426F8E70626C9
:103F8000F6E70826F4E70A26F2E70C26F0E7102603
:103F9000EEE72026ECE74026EAE78026E8E7092D51
:103FA000BFF4CDAEDFE805F006093C058305050545
:103FB00086004BE6FDF7DEFC01E0FDF7EDFC014677
:103FC000606AA8B1012815D0022815D0032815D0A1
:103FD000042815D0052815D0062815D0072815D097
:103FE000082815D0092815D00A2815D00B2814D078
:103FF000012612E0022610E004260EE006260CE060
:1040000008260AE00A2608E00C2606E0102604E04E
:10401000202602E0402600E08026B1FBF6F11AE0FF
:10402000606AA8B101282ED002282ED003282ED0F5
:1040300004282ED005282ED006282ED007282ED0D2
:1040400008282ED009282ED00A282ED00B2800D0E0
:104050000126BAFBF6F1606801EB5001B1FBF0F00C
:1040600080B2A0F110014145A3D82168C8600120A9
:10407000A4F86A0024F8680F3846C4F80490C4F81D
:104080000890BDE8F09F0226E3E70426E1E7062654
:10409000DFE70826DDE70A26DBE70C26D9E710264E
:1040A000D7E72026D5E74026D3E78026D1E7FDF7DE
:1040B00085FC84E7606AA8B1012817D0022817D0D0
:1040C000032817D0042817D0052817D0062817D0A2
:1040D000072817D0082817D0092817D00A2817D082
:1040E0000B2800D00126BBFBF6F1B4E70226FAE765
:1040F0000426F8E70626F6E70826F4E70A26F2E79C
:104100000C26F0E71026EEE72026ECE74026EAE74B
:104110008026E8E7D0F88010212910D1B0F8561099
:1041200071B1016D02680988C1F308019162016DE6
:10413000891C0165B0F85610491EA0F8561070474A
:1041400001680A6822F080020A600068016841F094
:104150004001016070470000D0F8801021291BD178
:10416000B0F86A1016E000BFB0F85620AAB1026895
:10417000D3691B060CD5036D1B88C3F30803936238
:10418000026D921C0265B0F85620521EA0F856200F
:10419000491E89B20029E7D1704701688A6822F474
:1041A00000028A600068016841F0400101607047C8
:1041B000D0F8801021290ED1B0F8561061B1016DF0
:1041C000026809789162016D491C0165B0F85610CA
:1041D000491EA0F85610704701680A6822F0800254
:1041E0000A600068016841F040010160704700000A
:1041F000D0F88010212919D1B0F86A1014E000BF5E
:10420000B0F856209AB10268D3691B060AD5036D2F
:104210001B789362026D521C0265B0F85620521E44
:10422000A0F85620491E89B20029E9D170470168DB
:104230008A6822F400028A600068016841F0400147
:10424000016070472DE9F041984617460E46044636
:10425000069D08E0681C06D0FDF724F8A0EB0800D6
:10426000A8420BD855B12068C06936EA000019D0C1
:104270000020B842EED00020BDE8F081206801683F
:1042800021F4D07101602068816821F00101816012
:104290002020C4F88000C4F88400002084F87C004A
:1042A0000320E9E70120E4E70148FEF7F1BA000046
:1042B000B4030020FEE70907090E002804DB00F123
:1042C000E02080F80014704700F00F0000F1E020BB
:1042D00080F8141D704702E008C8121F08C1002AA8
:1042E000FAD170477047002001E001C1121F002A77
:1042F000FBD1704770B505460A20B1FBF0F20C46C1
:104300000C4930324FF47A734A73B4FBF0F200FB7D
:1043100012403030887319220748FEF7EBFCC820A2
:10432000FCF7B8FE22462946BDE870400248FEF779
:104330003FBD0000D3000020B403002010B50446A8
:104340007F210548FCF7E6F82046BDE810406422CE
:104350000249FCF7D5BC0000BC0200201801002077
:104360002DE9F047012216491648FEF7F5FB002417
:10437000134FA0461E374FF47A7AA7F11F09C4EBFA
:104380000410142500EB4000C61905E02946002062
:10439000FFF7F4F96D1EEDB231462D220948FEF704
:1043A00007FD08B1002DF1D15046FCF773FE641CE7
:1043B000E4B289F80080042CE1D3BDE8F087000066
:1043C00001000020B4030020012202490248FEF748
:1043D000C3BB0000A8020020280300200EB5FCF794
:1043E0006FFFFEF79DFFFEF7BBFD2948816C41F092
:1043F00004018164816C01F004010091816C41F041
:1044000001018164806C002200F0010000901146DF
:104410000B20FCF7B1FF0B20FCF7A0FFFEF738FFE5
:10442000FEF74AFDFEF728FEFEF74AFEFEF764FEA1
:10443000FEF7A2FEFEF7E4FEFEF77EFE002416491C
:10444000144800940194029401C1AA204FF47A7593
:1044500031C111488C60FDF710FF009469460E4889
:104460000294FDF7D1FE0D48FFF768FFFFF7ACFFA0
:10447000FFF776FF0A4C20212046FCF707FF0621B4
:1044800008A0FFF737FF2846FCF704FEF3E700001B
:104490000010024000100040AC050020BC020020CB
:1044A000000400483132330D0A0000000000000013
:1044B00000000000010203040607080900000000D4
:1044C00001020304E4440008000000201801000079
:1044D000D6420008FC4500081801002078090000B9
:1044E000E6420008004F4B00000000000000000002
:1044F00000000000000000000000000000000000BC
:1045000000000041542B43574D4F44453D320D0AA6
:10451000000000000000000000000000000000009B
:10452000000000000000000000000000000000008B
:1045300041542B43575341503D22757365726E6150
:104540006D65222C2270617373776F7264222C3137
:104550002C300D0A00000000000000000041542B28
:104560004349504D55583D310D0A000000000000F0
:10457000000000000000000000000000000000003B
:104580000000000000000000000041542B4349508F
:104590005345525645523D312C363738390D0A00B5
:1045A000000000000000000000000000000000000B
:1045B0000000000000000041542B43495053454E79
:1045C000443D302C30300D0A000000000000000097
:1045D00041542B43495053454E4400000000000015
:1045E00000000000000000000000000010000000BB
:0C45F00001000000000000000024F400A6
:04000005080001D915
:00000001FF
